{
  "abi": [
    {
      "inputs": [
        {
          "internalType": "contract IERC20",
          "name": "_token",
          "type": "address"
        }
      ],
      "stateMutability": "nonpayable",
      "type": "constructor"
    },
    {
      "anonymous": false,
      "inputs": [
        {
          "indexed": true,
          "internalType": "address",
          "name": "owner",
          "type": "address"
        },
        {
          "indexed": true,
          "internalType": "address",
          "name": "spender",
          "type": "address"
        },
        {
          "indexed": false,
          "internalType": "uint256",
          "name": "value",
          "type": "uint256"
        }
      ],
      "name": "Approval",
      "type": "event"
    },
    {
      "anonymous": false,
      "inputs": [
        {
          "indexed": false,
          "internalType": "bytes",
          "name": "value",
          "type": "bytes"
        }
      ],
      "name": "Debug",
      "type": "event"
    },
    {
      "anonymous": false,
      "inputs": [
        {
          "indexed": false,
          "internalType": "address",
          "name": "sender",
          "type": "address"
        },
        {
          "indexed": false,
          "internalType": "uint256",
          "name": "amount",
          "type": "uint256"
        }
      ],
      "name": "LogBorrow",
      "type": "event"
    },
    {
      "anonymous": false,
      "inputs": [
        {
          "indexed": false,
          "internalType": "address",
          "name": "sender",
          "type": "address"
        },
        {
          "indexed": false,
          "internalType": "uint256",
          "name": "amount",
          "type": "uint256"
        }
      ],
      "name": "LogRepay",
      "type": "event"
    },
    {
      "anonymous": false,
      "inputs": [
        {
          "indexed": false,
          "internalType": "address",
          "name": "sender",
          "type": "address"
        },
        {
          "indexed": false,
          "internalType": "uint256",
          "name": "amount",
          "type": "uint256"
        }
      ],
      "name": "LogStake",
      "type": "event"
    },
    {
      "anonymous": false,
      "inputs": [
        {
          "indexed": false,
          "internalType": "address",
          "name": "sender",
          "type": "address"
        },
        {
          "indexed": false,
          "internalType": "uint256",
          "name": "amount",
          "type": "uint256"
        }
      ],
      "name": "LogUnstake",
      "type": "event"
    },
    {
      "anonymous": false,
      "inputs": [
        {
          "indexed": true,
          "internalType": "address",
          "name": "from",
          "type": "address"
        },
        {
          "indexed": true,
          "internalType": "address",
          "name": "to",
          "type": "address"
        },
        {
          "indexed": false,
          "internalType": "uint256",
          "name": "value",
          "type": "uint256"
        }
      ],
      "name": "Transfer",
      "type": "event"
    },
    {
      "inputs": [
        {
          "internalType": "address",
          "name": "owner",
          "type": "address"
        },
        {
          "internalType": "address",
          "name": "spender",
          "type": "address"
        }
      ],
      "name": "allowance",
      "outputs": [
        {
          "internalType": "uint256",
          "name": "",
          "type": "uint256"
        }
      ],
      "stateMutability": "view",
      "type": "function"
    },
    {
      "inputs": [
        {
          "internalType": "address",
          "name": "spender",
          "type": "address"
        },
        {
          "internalType": "uint256",
          "name": "amount",
          "type": "uint256"
        }
      ],
      "name": "approve",
      "outputs": [
        {
          "internalType": "bool",
          "name": "",
          "type": "bool"
        }
      ],
      "stateMutability": "nonpayable",
      "type": "function"
    },
    {
      "inputs": [
        {
          "internalType": "address",
          "name": "account",
          "type": "address"
        }
      ],
      "name": "balanceOf",
      "outputs": [
        {
          "internalType": "uint256",
          "name": "",
          "type": "uint256"
        }
      ],
      "stateMutability": "view",
      "type": "function"
    },
    {
      "inputs": [
        {
          "internalType": "uint256",
          "name": "amount",
          "type": "uint256"
        }
      ],
      "name": "borrow",
      "outputs": [],
      "stateMutability": "nonpayable",
      "type": "function"
    },
    {
      "inputs": [],
      "name": "decimals",
      "outputs": [
        {
          "internalType": "uint8",
          "name": "",
          "type": "uint8"
        }
      ],
      "stateMutability": "view",
      "type": "function"
    },
    {
      "inputs": [
        {
          "internalType": "address",
          "name": "spender",
          "type": "address"
        },
        {
          "internalType": "uint256",
          "name": "subtractedValue",
          "type": "uint256"
        }
      ],
      "name": "decreaseAllowance",
      "outputs": [
        {
          "internalType": "bool",
          "name": "",
          "type": "bool"
        }
      ],
      "stateMutability": "nonpayable",
      "type": "function"
    },
    {
      "inputs": [
        {
          "internalType": "address",
          "name": "spender",
          "type": "address"
        },
        {
          "internalType": "uint256",
          "name": "addedValue",
          "type": "uint256"
        }
      ],
      "name": "increaseAllowance",
      "outputs": [
        {
          "internalType": "bool",
          "name": "",
          "type": "bool"
        }
      ],
      "stateMutability": "nonpayable",
      "type": "function"
    },
    {
      "inputs": [],
      "name": "name",
      "outputs": [
        {
          "internalType": "string",
          "name": "",
          "type": "string"
        }
      ],
      "stateMutability": "view",
      "type": "function"
    },
    {
      "inputs": [
        {
          "internalType": "uint256",
          "name": "amount",
          "type": "uint256"
        }
      ],
      "name": "repay",
      "outputs": [],
      "stateMutability": "nonpayable",
      "type": "function"
    },
    {
      "inputs": [
        {
          "internalType": "uint256",
          "name": "amount",
          "type": "uint256"
        }
      ],
      "name": "stake",
      "outputs": [],
      "stateMutability": "nonpayable",
      "type": "function"
    },
    {
      "inputs": [
        {
          "internalType": "address",
          "name": "",
          "type": "address"
        }
      ],
      "name": "stakers",
      "outputs": [
        {
          "internalType": "address",
          "name": "staker",
          "type": "address"
        },
        {
          "internalType": "uint256",
          "name": "stakedAmount",
          "type": "uint256"
        },
        {
          "internalType": "uint256",
          "name": "outstanding",
          "type": "uint256"
        }
      ],
      "stateMutability": "view",
      "type": "function"
    },
    {
      "inputs": [],
      "name": "symbol",
      "outputs": [
        {
          "internalType": "string",
          "name": "",
          "type": "string"
        }
      ],
      "stateMutability": "view",
      "type": "function"
    },
    {
      "inputs": [],
      "name": "token",
      "outputs": [
        {
          "internalType": "contract IERC20",
          "name": "",
          "type": "address"
        }
      ],
      "stateMutability": "view",
      "type": "function"
    },
    {
      "inputs": [],
      "name": "totalSupply",
      "outputs": [
        {
          "internalType": "uint256",
          "name": "",
          "type": "uint256"
        }
      ],
      "stateMutability": "view",
      "type": "function"
    },
    {
      "inputs": [
        {
          "internalType": "address",
          "name": "who",
          "type": "address"
        }
      ],
      "name": "totalVouch",
      "outputs": [
        {
          "internalType": "uint256",
          "name": "total",
          "type": "uint256"
        }
      ],
      "stateMutability": "view",
      "type": "function"
    },
    {
      "inputs": [
        {
          "internalType": "address",
          "name": "to",
          "type": "address"
        },
        {
          "internalType": "uint256",
          "name": "amount",
          "type": "uint256"
        }
      ],
      "name": "transfer",
      "outputs": [
        {
          "internalType": "bool",
          "name": "",
          "type": "bool"
        }
      ],
      "stateMutability": "nonpayable",
      "type": "function"
    },
    {
      "inputs": [
        {
          "internalType": "address",
          "name": "from",
          "type": "address"
        },
        {
          "internalType": "address",
          "name": "to",
          "type": "address"
        },
        {
          "internalType": "uint256",
          "name": "amount",
          "type": "uint256"
        }
      ],
      "name": "transferFrom",
      "outputs": [
        {
          "internalType": "bool",
          "name": "",
          "type": "bool"
        }
      ],
      "stateMutability": "nonpayable",
      "type": "function"
    },
    {
      "inputs": [
        {
          "internalType": "uint256",
          "name": "amount",
          "type": "uint256"
        }
      ],
      "name": "unstake",
      "outputs": [],
      "stateMutability": "nonpayable",
      "type": "function"
    },
    {
      "inputs": [
        {
          "internalType": "address",
          "name": "borrower",
          "type": "address"
        },
        {
          "internalType": "uint256",
          "name": "amount",
          "type": "uint256"
        }
      ],
      "name": "updateVouch",
      "outputs": [],
      "stateMutability": "nonpayable",
      "type": "function"
    }
  ],
  "bytecode": {
    "object": "0x60806040523480156200001157600080fd5b50604051620017f9380380620017f9833981016040819052620000349162000159565b6040805180820182526004808252637544414960e01b6020808401828152855180870190965292855284015281519192916200007391600391620000b3565b50805162000089906004906020840190620000b3565b5050600580546001600160a01b0319166001600160a01b03939093169290921790915550620001c8565b828054620000c1906200018b565b90600052602060002090601f016020900481019282620000e5576000855562000130565b82601f106200010057805160ff191683800117855562000130565b8280016001018555821562000130579182015b828111156200013057825182559160200191906001019062000113565b506200013e92915062000142565b5090565b5b808211156200013e576000815560010162000143565b6000602082840312156200016c57600080fd5b81516001600160a01b03811681146200018457600080fd5b9392505050565b600181811c90821680620001a057607f821691505b60208210811415620001c257634e487b7160e01b600052602260045260246000fd5b50919050565b61162180620001d86000396000f3fe608060405234801561001057600080fd5b50600436106101215760003560e01c806370a08231116100ad578063a694fc3a11610071578063a694fc3a1461029e578063a9059cbb146102b1578063c5ebeaec146102c4578063dd62ed3e146102d7578063fc0c546a1461031057600080fd5b806370a08231146101e9578063864119ce146102125780639168ae721461022557806395d89b4114610283578063a457c2d71461028b57600080fd5b806323b872dd116100f457806323b872dd1461018e5780632e17de78146101a1578063313ce567146101b4578063371fd8e6146101c357806339509351146101d657600080fd5b806306fdde0314610126578063072684a914610144578063095ea7b31461015957806318160ddd1461017c575b600080fd5b61012e61033b565b60405161013b919061140c565b60405180910390f35b61015761015236600461143b565b6103cd565b005b61016c61016736600461143b565b61047b565b604051901515815260200161013b565b6002545b60405190815260200161013b565b61016c61019c366004611465565b610495565b6101576101af3660046114a1565b6104b9565b6040516012815260200161013b565b6101576101d13660046114a1565b61057d565b61016c6101e436600461143b565b61077f565b6101806101f73660046114ba565b6001600160a01b031660009081526020819052604090205490565b6101806102203660046114ba565b6107be565b61025e6102333660046114ba565b6006602052600090815260409020805460018201546002909201546001600160a01b03909116919083565b604080516001600160a01b03909416845260208401929092529082015260600161013b565b61012e610918565b61016c61029936600461143b565b610927565b6101576102ac3660046114a1565b6109b9565b61016c6102bf36600461143b565b610a2a565b6101576102d23660046114a1565b610a38565b6101806102e53660046114d5565b6001600160a01b03918216600090815260016020908152604080832093909416825291909152205490565b600554610323906001600160a01b031681565b6040516001600160a01b03909116815260200161013b565b60606003805461034a90611508565b80601f016020809104026020016040519081016040528092919081815260200182805461037690611508565b80156103c35780601f10610398576101008083540402835291602001916103c3565b820191906000526020600020905b8154815290600101906020018083116103a657829003601f168201915b5050505050905090565b6001600160a01b0382163314156104195760405162461bcd60e51b815260206004820152600b60248201526a042e6cad8cc40ecdeeac6d60ab1b60448201526064015b60405180910390fd5b6001600160a01b039182166000908152600660209081526040808320815180830190925233825281830194855260030180546001808201835591855292909320905160029092020180546001600160a01b031916919094161783559051910155565b600033610489818585610c83565b60019150505b92915050565b6000336104a3858285610da7565b6104ae858585610e39565b506001949350505050565b336000908152600660205260408120600281015460018201549192916104df9190611553565b90508281101561051b5760405162461bcd60e51b8152602060048201526007602482015266085b1a5c5d5a5960ca1b6044820152606401610410565b8282600101600082825461052f9190611553565b9091555061053f90503384611007565b60408051338152602081018590527faf14da4c9c7eeb91ef462950405340d31988005c789d867d3a1394f082105e89910160405180910390a1505050565b336000908152600660209081526040808320600381018054835181860281018601909452808452919490938693919261060a9291869190859084015b82821015610601576000848152602090819020604080518082019091526002850290910180546001600160a01b031682526001908101548284015290835290920191016105b9565b50505050611084565b905060005b81518110156106f95760008483838151811061062d5761062d61156a565b602002602001015160000151815481106106495761064961156a565b60009182526020808320604080518082018252600294850290920180546001600160a01b031680845260019091015483850152855260069092529083209182015490935090919061069b90879061124c565b9050600081116106ad575050506106e7565b808260020160008282546106c19190611553565b909155506106d190508187611553565b9550600086116106e3575050506106f9565b5050505b806106f181611580565b91505061060f565b5081156107355760405162461bcd60e51b815260206004820152600a6024820152692172656d61696e696e6760b01b6044820152606401610410565b61073f3386611263565b60408051338152602081018790527fcd300581542c5eab58e736a0b08b42cec829c4504d1c16af90f4630b27e30de3910160405180910390a15050505050565b3360008181526001602090815260408083206001600160a01b038716845290915281205490919061048990829086906107b990879061159b565b610c83565b6001600160a01b0381166000908152600660205260408120815b60038201548110156109115760008260030182815481106107fb576107fb61156a565b60009182526020808320604080518082018252600294850290920180546001600160a01b0390811680855260019283015485870152875260068552828720835160808101855281549092168252918201548186015294810154858301526003810180548351818702810187019094528084529397509093606086019390879084015b828210156108c5576000848152602090819020604080518082019091526002850290910180546001600160a01b0316825260019081015482840152908352909201910161087d565b5050505081525050905080604001516108e6826020015184602001516112a2565b6108f09190611553565b6108fa908661159b565b94505050808061090990611580565b9150506107d8565b5050919050565b60606004805461034a90611508565b3360008181526001602090815260408083206001600160a01b0387168452909152812054909190838110156109ac5760405162461bcd60e51b815260206004820152602560248201527f45524332303a2064656372656173656420616c6c6f77616e63652062656c6f77604482015264207a65726f60d81b6064820152608401610410565b6104ae8286868403610c83565b336000908152600660205260408120600181018054919284926109dd90849061159b565b909155506109ed90503383611263565b60408051338152602081018490527f3dbdcfd4c1f2e08931aae3d544e149a1e643143f5234d166fe3debb783388495910160405180910390a15050565b600033610489818585610e39565b3360009081526006602090815260408083206003810180548351818602810186019094528084529194909386939192610ab99291869190859084018215610601576000848152602090819020604080518082019091526002850290910180546001600160a01b031682526001908101548284015290835290920191016105b9565b90506000805b8251811015610ba657600085848381518110610add57610add61156a565b60200260200101516000015181548110610af957610af961156a565b906000526020600020906002020190506000610b3286868581518110610b2157610b2161156a565b60200260200101516020015161124c565b82546001600160a01b0316600090815260066020526040812060020180549293508392909190610b6390849061159b565b90915550610b7390508187611553565b955083610b7f81611580565b94505060008611610b91575050610ba6565b50508080610b9e90611580565b915050610abf565b507f31fe5ce544784f2e2e62fd1c70cb1ebe6cd1f8e17a185909f82c430b6c7ec47081604051602001610bdb91815260200190565b60408051601f1981840301815290829052610bf59161140c565b60405180910390a18215610c385760405162461bcd60e51b815260206004820152600a6024820152692172656d61696e696e6760b01b6044820152606401610410565b610c423387611007565b60408051338152602081018890527fe9972ade4415ef9d94e4dc13a7ab04db7c7571cfe9928bb511aa949db75cb14d910160405180910390a1505050505050565b6001600160a01b038316610ce55760405162461bcd60e51b8152602060048201526024808201527f45524332303a20617070726f76652066726f6d20746865207a65726f206164646044820152637265737360e01b6064820152608401610410565b6001600160a01b038216610d465760405162461bcd60e51b815260206004820152602260248201527f45524332303a20617070726f766520746f20746865207a65726f206164647265604482015261737360f01b6064820152608401610410565b6001600160a01b0383811660008181526001602090815260408083209487168084529482529182902085905590518481527f8c5be1e5ebec7d5bd14f71427d1e84f3dd0314c0f7b2291e5b200ac8c7c3b925910160405180910390a3505050565b6001600160a01b038381166000908152600160209081526040808320938616835292905220546000198114610e335781811015610e265760405162461bcd60e51b815260206004820152601d60248201527f45524332303a20696e73756666696369656e7420616c6c6f77616e63650000006044820152606401610410565b610e338484848403610c83565b50505050565b6001600160a01b038316610e9d5760405162461bcd60e51b815260206004820152602560248201527f45524332303a207472616e736665722066726f6d20746865207a65726f206164604482015264647265737360d81b6064820152608401610410565b6001600160a01b038216610eff5760405162461bcd60e51b815260206004820152602360248201527f45524332303a207472616e7366657220746f20746865207a65726f206164647260448201526265737360e81b6064820152608401610410565b6001600160a01b03831660009081526020819052604090205481811015610f775760405162461bcd60e51b815260206004820152602660248201527f45524332303a207472616e7366657220616d6f756e7420657863656564732062604482015265616c616e636560d01b6064820152608401610410565b6001600160a01b03808516600090815260208190526040808220858503905591851681529081208054849290610fae90849061159b565b92505081905550826001600160a01b0316846001600160a01b03167fddf252ad1be2c89b69c2b068fc378daa952ba7f163c4a11628f55a4df523b3ef84604051610ffa91815260200190565b60405180910390a3610e33565b60055460405163a9059cbb60e01b81526001600160a01b038481166004830152602482018490529091169063a9059cbb906044015b6020604051808303816000875af115801561105b573d6000803e3d6000fd5b505050506040513d601f19601f8201168201806040525081019061107f91906115b3565b505050565b60606000825167ffffffffffffffff8111156110a2576110a26115d5565b6040519080825280602002602001820160405280156110e757816020015b60408051808201909152600080825260208201528152602001906001900390816110c05790505b50905060005b835181101561123b57600084828151811061110a5761110a61156a565b60209081029190910181015180516001600160a01b03908116600090815260068452604080822081516080810183528154909416845260018101548487015260028101548483015260038101805483518189028101890190945280845295975092959394909360608601939190879084015b828210156111c4576000848152602090819020604080518082019091526002850290910180546001600160a01b0316825260019081015482840152908352909201910161117c565b50505050815250509050600081604001516111e7836020015185602001516112a2565b6111f19190611553565b905060405180604001604052808581526020018281525085858151811061121a5761121a61156a565b6020026020010181905250505050808061123390611580565b9150506110ed565b50611245816112b3565b9392505050565b60008183101561125d57508161048f565b50919050565b6005546040516323b872dd60e01b81526001600160a01b03848116600483015230602483015260448201849052909116906323b872dd9060640161103c565b60008183111561125d57508161048f565b805160609060005b818110156113b75760006112d082600161159b565b90505b828110156113a4578481815181106112ed576112ed61156a565b60200260200101516020015185838151811061130b5761130b61156a565b60200260200101516020015110156113925760008582815181106113315761133161156a565b6020026020010151905085838151811061134d5761134d61156a565b60200260200101518683815181106113675761136761156a565b6020026020010181905250808684815181106113855761138561156a565b6020026020010181905250505b8061139c81611580565b9150506112d3565b50806113af81611580565b9150506112bb565b509192915050565b6000815180845260005b818110156113e5576020818501810151868301820152016113c9565b818111156113f7576000602083870101525b50601f01601f19169290920160200192915050565b60208152600061124560208301846113bf565b80356001600160a01b038116811461143657600080fd5b919050565b6000806040838503121561144e57600080fd5b6114578361141f565b946020939093013593505050565b60008060006060848603121561147a57600080fd5b6114838461141f565b92506114916020850161141f565b9150604084013590509250925092565b6000602082840312156114b357600080fd5b5035919050565b6000602082840312156114cc57600080fd5b6112458261141f565b600080604083850312156114e857600080fd5b6114f18361141f565b91506114ff6020840161141f565b90509250929050565b600181811c9082168061151c57607f821691505b6020821081141561125d57634e487b7160e01b600052602260045260246000fd5b634e487b7160e01b600052601160045260246000fd5b6000828210156115655761156561153d565b500390565b634e487b7160e01b600052603260045260246000fd5b60006000198214156115945761159461153d565b5060010190565b600082198211156115ae576115ae61153d565b500190565b6000602082840312156115c557600080fd5b8151801515811461124557600080fd5b634e487b7160e01b600052604160045260246000fdfea264697066735822122078ae73a49e901af5d2adde47a180d5003b2508ca8c2b19e22910261a8922c26064736f6c634300080b0033",
    "linkReferences": {}
  }
}