{
  "abi": [
    {
      "inputs": [],
      "stateMutability": "nonpayable",
      "type": "constructor"
    },
    {
      "anonymous": false,
      "inputs": [
        {
          "indexed": false,
          "internalType": "bytes",
          "name": "value",
          "type": "bytes"
        }
      ],
      "name": "Debug",
      "type": "event"
    },
    {
      "anonymous": false,
      "inputs": [
        {
          "indexed": false,
          "internalType": "address",
          "name": "sender",
          "type": "address"
        },
        {
          "indexed": false,
          "internalType": "uint256",
          "name": "amount",
          "type": "uint256"
        }
      ],
      "name": "LogBorrow",
      "type": "event"
    },
    {
      "anonymous": false,
      "inputs": [
        {
          "indexed": false,
          "internalType": "address",
          "name": "sender",
          "type": "address"
        },
        {
          "indexed": false,
          "internalType": "uint256",
          "name": "amount",
          "type": "uint256"
        }
      ],
      "name": "LogRepay",
      "type": "event"
    },
    {
      "anonymous": false,
      "inputs": [
        {
          "indexed": false,
          "internalType": "address",
          "name": "sender",
          "type": "address"
        },
        {
          "indexed": false,
          "internalType": "uint256",
          "name": "amount",
          "type": "uint256"
        }
      ],
      "name": "LogStake",
      "type": "event"
    },
    {
      "anonymous": false,
      "inputs": [
        {
          "indexed": false,
          "internalType": "address",
          "name": "sender",
          "type": "address"
        },
        {
          "indexed": false,
          "internalType": "uint256",
          "name": "amount",
          "type": "uint256"
        }
      ],
      "name": "LogUnstake",
      "type": "event"
    },
    {
      "inputs": [
        {
          "internalType": "uint256",
          "name": "amount",
          "type": "uint256"
        }
      ],
      "name": "borrow",
      "outputs": [],
      "stateMutability": "nonpayable",
      "type": "function"
    },
    {
      "inputs": [
        {
          "internalType": "uint256",
          "name": "amount",
          "type": "uint256"
        }
      ],
      "name": "stake",
      "outputs": [],
      "stateMutability": "nonpayable",
      "type": "function"
    },
    {
      "inputs": [
        {
          "internalType": "address",
          "name": "",
          "type": "address"
        }
      ],
      "name": "stakers",
      "outputs": [
        {
          "internalType": "uint256",
          "name": "stakedAmount",
          "type": "uint256"
        },
        {
          "internalType": "uint256",
          "name": "outstanding",
          "type": "uint256"
        }
      ],
      "stateMutability": "view",
      "type": "function"
    },
    {
      "inputs": [
        {
          "internalType": "address",
          "name": "who",
          "type": "address"
        }
      ],
      "name": "totalVouch",
      "outputs": [
        {
          "internalType": "uint256",
          "name": "total",
          "type": "uint256"
        }
      ],
      "stateMutability": "view",
      "type": "function"
    },
    {
      "inputs": [
        {
          "internalType": "uint256",
          "name": "amount",
          "type": "uint256"
        }
      ],
      "name": "unstake",
      "outputs": [],
      "stateMutability": "nonpayable",
      "type": "function"
    },
    {
      "inputs": [
        {
          "internalType": "address",
          "name": "borrower",
          "type": "address"
        },
        {
          "internalType": "uint256",
          "name": "amount",
          "type": "uint256"
        }
      ],
      "name": "updateVouch",
      "outputs": [],
      "stateMutability": "nonpayable",
      "type": "function"
    },
    {
      "inputs": [
        {
          "internalType": "address",
          "name": "",
          "type": "address"
        },
        {
          "internalType": "uint256",
          "name": "",
          "type": "uint256"
        }
      ],
      "name": "vouchers",
      "outputs": [
        {
          "internalType": "address",
          "name": "staker",
          "type": "address"
        },
        {
          "internalType": "uint256",
          "name": "amount",
          "type": "uint256"
        },
        {
          "internalType": "uint256",
          "name": "outstanding",
          "type": "uint256"
        }
      ],
      "stateMutability": "view",
      "type": "function"
    }
  ],
  "bytecode": {
    "object": "0x608060405234801561001057600080fd5b50610749806100206000396000f3fe608060405234801561001057600080fd5b506004361061007d5760003560e01c80639168ae721161005b5780639168ae72146100d0578063a694fc3a1461010c578063c5ebeaec1461011f578063f8eb66241461013257600080fd5b8063072684a9146100825780632e17de7814610097578063864119ce146100aa575b600080fd5b610095610090366004610638565b61016a565b005b6100956100a5366004610662565b610227565b6100bd6100b836600461067b565b6102e3565b6040519081526020015b60405180910390f35b6100f76100de36600461067b565b6000602081905290815260409020805460019091015482565b604080519283526020830191909152016100c7565b61009561011a366004610662565b6103d3565b61009561012d366004610662565b61043f565b610145610140366004610638565b6105a5565b604080516001600160a01b0390941684526020840192909252908201526060016100c7565b6001600160a01b0382163314156101b65760405162461bcd60e51b815260206004820152600b60248201526a042e6cad8cc40ecdeeac6d60ab1b60448201526064015b60405180910390fd5b336000818152600160208181526040808420815160608101835295865285830196875290850184815281548085018355918552919093209351600390930290930180546001600160a01b0319166001600160a01b039093169290921782559251928101929092555160029091015550565b3360009081526020819052604081206001810154815491929161024a91906106b3565b9050828110156102865760405162461bcd60e51b8152602060048201526007602482015266085b1a5c5d5a5960ca1b60448201526064016101ad565b8282600001600082825461029a91906106b3565b909155506102a59050565b60408051338152602081018590527faf14da4c9c7eeb91ef462950405340d31988005c789d867d3a1394f082105e89910160405180910390a1505050565b6000805b6001600160a01b0383166000908152600160205260409020548110156103cd576001600160a01b0383166000908152600160205260408120805483908110610331576103316106ca565b6000918252602080832060408051606081018252600390940290910180546001600160a01b0316808552600180830154868601908152600290930154868501529086528584529482902082518084019093528054808452950154928201839052519294509290916103a291906105f1565b6103ac91906106b3565b6103b690856106e0565b9350505080806103c5906106f8565b9150506102e7565b50919050565b3360009081526020819052604081208054909183918391906103f69084906106e0565b909155506104019050565b60408051338152602081018490527f3dbdcfd4c1f2e08931aae3d544e149a1e643143f5234d166fe3debb78338849591015b60405180910390a15050565b8060005b336000908152600160205260409020548110156105335733600090815260016020526040812080548390811061047b5761047b6106ca565b906000526020600020906003020190506000816002015482600101546104a191906106b3565b905060006104af858361060b565b83546001600160a01b03166000908152602081905260408120600101805492935083929091906104e09084906106e0565b92505081905550808360020160008282546104fb91906106e0565b9091555061050b905081866106b3565b94506000851161051d57505050610533565b505050808061052b906106f8565b915050610443565b50801561056f5760405162461bcd60e51b815260206004820152600a6024820152692172656d61696e696e6760b01b60448201526064016101ad565b60408051338152602081018490527fe9972ade4415ef9d94e4dc13a7ab04db7c7571cfe9928bb511aa949db75cb14d9101610433565b600160205281600052604060002081815481106105c157600080fd5b60009182526020909120600390910201805460018201546002909201546001600160a01b03909116935090915083565b600081831115610602575081610605565b50805b92915050565b600081831015610602575081610605565b80356001600160a01b038116811461063357600080fd5b919050565b6000806040838503121561064b57600080fd5b6106548361061c565b946020939093013593505050565b60006020828403121561067457600080fd5b5035919050565b60006020828403121561068d57600080fd5b6106968261061c565b9392505050565b634e487b7160e01b600052601160045260246000fd5b6000828210156106c5576106c561069d565b500390565b634e487b7160e01b600052603260045260246000fd5b600082198211156106f3576106f361069d565b500190565b600060001982141561070c5761070c61069d565b506001019056fea2646970667358221220b8d02aaddcd2976ae6040eed33d6039c00c4698ce3f8776847c50f0b34006c4564736f6c634300080b0033",
    "linkReferences": {}
  }
}