{
  "abi": [
    {
      "inputs": [
        {
          "internalType": "contract IERC20",
          "name": "_token",
          "type": "address"
        }
      ],
      "stateMutability": "nonpayable",
      "type": "constructor"
    },
    {
      "anonymous": false,
      "inputs": [
        {
          "indexed": true,
          "internalType": "address",
          "name": "owner",
          "type": "address"
        },
        {
          "indexed": true,
          "internalType": "address",
          "name": "spender",
          "type": "address"
        },
        {
          "indexed": false,
          "internalType": "uint256",
          "name": "value",
          "type": "uint256"
        }
      ],
      "name": "Approval",
      "type": "event"
    },
    {
      "anonymous": false,
      "inputs": [
        {
          "indexed": true,
          "internalType": "address",
          "name": "from",
          "type": "address"
        },
        {
          "indexed": true,
          "internalType": "address",
          "name": "to",
          "type": "address"
        },
        {
          "indexed": false,
          "internalType": "uint256",
          "name": "value",
          "type": "uint256"
        }
      ],
      "name": "Transfer",
      "type": "event"
    },
    {
      "inputs": [
        {
          "components": [
            {
              "internalType": "address",
              "name": "addr",
              "type": "address"
            },
            {
              "internalType": "uint256",
              "name": "stakedAmount",
              "type": "uint256"
            },
            {
              "internalType": "uint256",
              "name": "outstanding",
              "type": "uint256"
            },
            {
              "components": [
                {
                  "internalType": "address",
                  "name": "addr",
                  "type": "address"
                },
                {
                  "internalType": "uint256",
                  "name": "amount",
                  "type": "uint256"
                }
              ],
              "internalType": "struct UTokenV1.Vouch[]",
              "name": "vouches",
              "type": "tuple[]"
            }
          ],
          "internalType": "struct UTokenV1.Staker",
          "name": "staker",
          "type": "tuple"
        }
      ],
      "name": "_root",
      "outputs": [
        {
          "internalType": "bytes32",
          "name": "",
          "type": "bytes32"
        }
      ],
      "stateMutability": "nonpayable",
      "type": "function"
    },
    {
      "inputs": [
        {
          "internalType": "address",
          "name": "owner",
          "type": "address"
        },
        {
          "internalType": "address",
          "name": "spender",
          "type": "address"
        }
      ],
      "name": "allowance",
      "outputs": [
        {
          "internalType": "uint256",
          "name": "",
          "type": "uint256"
        }
      ],
      "stateMutability": "view",
      "type": "function"
    },
    {
      "inputs": [
        {
          "internalType": "address",
          "name": "spender",
          "type": "address"
        },
        {
          "internalType": "uint256",
          "name": "amount",
          "type": "uint256"
        }
      ],
      "name": "approve",
      "outputs": [
        {
          "internalType": "bool",
          "name": "",
          "type": "bool"
        }
      ],
      "stateMutability": "nonpayable",
      "type": "function"
    },
    {
      "inputs": [
        {
          "internalType": "address",
          "name": "account",
          "type": "address"
        }
      ],
      "name": "balanceOf",
      "outputs": [
        {
          "internalType": "uint256",
          "name": "",
          "type": "uint256"
        }
      ],
      "stateMutability": "view",
      "type": "function"
    },
    {
      "inputs": [
        {
          "components": [
            {
              "internalType": "address",
              "name": "addr",
              "type": "address"
            },
            {
              "internalType": "uint256",
              "name": "stakedAmount",
              "type": "uint256"
            },
            {
              "internalType": "uint256",
              "name": "outstanding",
              "type": "uint256"
            },
            {
              "components": [
                {
                  "internalType": "address",
                  "name": "addr",
                  "type": "address"
                },
                {
                  "internalType": "uint256",
                  "name": "amount",
                  "type": "uint256"
                }
              ],
              "internalType": "struct UTokenV1.Vouch[]",
              "name": "vouches",
              "type": "tuple[]"
            }
          ],
          "internalType": "struct UTokenV1.Staker",
          "name": "borrower",
          "type": "tuple"
        },
        {
          "components": [
            {
              "internalType": "address",
              "name": "addr",
              "type": "address"
            },
            {
              "internalType": "uint256",
              "name": "stakedAmount",
              "type": "uint256"
            },
            {
              "internalType": "uint256",
              "name": "outstanding",
              "type": "uint256"
            },
            {
              "components": [
                {
                  "internalType": "address",
                  "name": "addr",
                  "type": "address"
                },
                {
                  "internalType": "uint256",
                  "name": "amount",
                  "type": "uint256"
                }
              ],
              "internalType": "struct UTokenV1.Vouch[]",
              "name": "vouches",
              "type": "tuple[]"
            }
          ],
          "internalType": "struct UTokenV1.Staker[]",
          "name": "stakers",
          "type": "tuple[]"
        },
        {
          "internalType": "uint256",
          "name": "amount",
          "type": "uint256"
        }
      ],
      "name": "borrow",
      "outputs": [],
      "stateMutability": "nonpayable",
      "type": "function"
    },
    {
      "inputs": [
        {
          "components": [
            {
              "internalType": "address",
              "name": "addr",
              "type": "address"
            },
            {
              "internalType": "uint256",
              "name": "stakedAmount",
              "type": "uint256"
            },
            {
              "internalType": "uint256",
              "name": "outstanding",
              "type": "uint256"
            },
            {
              "components": [
                {
                  "internalType": "address",
                  "name": "addr",
                  "type": "address"
                },
                {
                  "internalType": "uint256",
                  "name": "amount",
                  "type": "uint256"
                }
              ],
              "internalType": "struct UTokenV1.Vouch[]",
              "name": "vouches",
              "type": "tuple[]"
            }
          ],
          "internalType": "struct UTokenV1.Staker",
          "name": "borrower",
          "type": "tuple"
        },
        {
          "components": [
            {
              "internalType": "address",
              "name": "addr",
              "type": "address"
            },
            {
              "internalType": "uint256",
              "name": "stakedAmount",
              "type": "uint256"
            },
            {
              "internalType": "uint256",
              "name": "outstanding",
              "type": "uint256"
            },
            {
              "components": [
                {
                  "internalType": "address",
                  "name": "addr",
                  "type": "address"
                },
                {
                  "internalType": "uint256",
                  "name": "amount",
                  "type": "uint256"
                }
              ],
              "internalType": "struct UTokenV1.Vouch[]",
              "name": "vouches",
              "type": "tuple[]"
            }
          ],
          "internalType": "struct UTokenV1.Staker[]",
          "name": "stakers",
          "type": "tuple[]"
        },
        {
          "internalType": "uint256",
          "name": "amount",
          "type": "uint256"
        }
      ],
      "name": "borrowSimple",
      "outputs": [],
      "stateMutability": "nonpayable",
      "type": "function"
    },
    {
      "inputs": [
        {
          "internalType": "bytes",
          "name": "",
          "type": "bytes"
        }
      ],
      "name": "bytesTest",
      "outputs": [],
      "stateMutability": "nonpayable",
      "type": "function"
    },
    {
      "inputs": [],
      "name": "decimals",
      "outputs": [
        {
          "internalType": "uint8",
          "name": "",
          "type": "uint8"
        }
      ],
      "stateMutability": "view",
      "type": "function"
    },
    {
      "inputs": [
        {
          "internalType": "address",
          "name": "spender",
          "type": "address"
        },
        {
          "internalType": "uint256",
          "name": "subtractedValue",
          "type": "uint256"
        }
      ],
      "name": "decreaseAllowance",
      "outputs": [
        {
          "internalType": "bool",
          "name": "",
          "type": "bool"
        }
      ],
      "stateMutability": "nonpayable",
      "type": "function"
    },
    {
      "inputs": [
        {
          "internalType": "address",
          "name": "spender",
          "type": "address"
        },
        {
          "internalType": "uint256",
          "name": "addedValue",
          "type": "uint256"
        }
      ],
      "name": "increaseAllowance",
      "outputs": [
        {
          "internalType": "bool",
          "name": "",
          "type": "bool"
        }
      ],
      "stateMutability": "nonpayable",
      "type": "function"
    },
    {
      "inputs": [],
      "name": "name",
      "outputs": [
        {
          "internalType": "string",
          "name": "",
          "type": "string"
        }
      ],
      "stateMutability": "view",
      "type": "function"
    },
    {
      "inputs": [
        {
          "internalType": "address",
          "name": "",
          "type": "address"
        }
      ],
      "name": "roots",
      "outputs": [
        {
          "internalType": "bytes32",
          "name": "",
          "type": "bytes32"
        }
      ],
      "stateMutability": "view",
      "type": "function"
    },
    {
      "inputs": [
        {
          "components": [
            {
              "internalType": "address",
              "name": "addr",
              "type": "address"
            },
            {
              "internalType": "uint256",
              "name": "stakedAmount",
              "type": "uint256"
            },
            {
              "internalType": "uint256",
              "name": "outstanding",
              "type": "uint256"
            },
            {
              "components": [
                {
                  "internalType": "address",
                  "name": "addr",
                  "type": "address"
                },
                {
                  "internalType": "uint256",
                  "name": "amount",
                  "type": "uint256"
                }
              ],
              "internalType": "struct UTokenV1.Vouch[]",
              "name": "vouches",
              "type": "tuple[]"
            }
          ],
          "internalType": "struct UTokenV1.Staker",
          "name": "staker",
          "type": "tuple"
        },
        {
          "internalType": "uint256",
          "name": "amount",
          "type": "uint256"
        }
      ],
      "name": "stake",
      "outputs": [],
      "stateMutability": "nonpayable",
      "type": "function"
    },
    {
      "inputs": [],
      "name": "symbol",
      "outputs": [
        {
          "internalType": "string",
          "name": "",
          "type": "string"
        }
      ],
      "stateMutability": "view",
      "type": "function"
    },
    {
      "inputs": [],
      "name": "token",
      "outputs": [
        {
          "internalType": "contract IERC20",
          "name": "",
          "type": "address"
        }
      ],
      "stateMutability": "view",
      "type": "function"
    },
    {
      "inputs": [],
      "name": "totalSupply",
      "outputs": [
        {
          "internalType": "uint256",
          "name": "",
          "type": "uint256"
        }
      ],
      "stateMutability": "view",
      "type": "function"
    },
    {
      "inputs": [
        {
          "internalType": "address",
          "name": "to",
          "type": "address"
        },
        {
          "internalType": "uint256",
          "name": "amount",
          "type": "uint256"
        }
      ],
      "name": "transfer",
      "outputs": [
        {
          "internalType": "bool",
          "name": "",
          "type": "bool"
        }
      ],
      "stateMutability": "nonpayable",
      "type": "function"
    },
    {
      "inputs": [
        {
          "internalType": "address",
          "name": "from",
          "type": "address"
        },
        {
          "internalType": "address",
          "name": "to",
          "type": "address"
        },
        {
          "internalType": "uint256",
          "name": "amount",
          "type": "uint256"
        }
      ],
      "name": "transferFrom",
      "outputs": [
        {
          "internalType": "bool",
          "name": "",
          "type": "bool"
        }
      ],
      "stateMutability": "nonpayable",
      "type": "function"
    },
    {
      "inputs": [
        {
          "components": [
            {
              "internalType": "address",
              "name": "addr",
              "type": "address"
            },
            {
              "internalType": "uint256",
              "name": "stakedAmount",
              "type": "uint256"
            },
            {
              "internalType": "uint256",
              "name": "outstanding",
              "type": "uint256"
            },
            {
              "components": [
                {
                  "internalType": "address",
                  "name": "addr",
                  "type": "address"
                },
                {
                  "internalType": "uint256",
                  "name": "amount",
                  "type": "uint256"
                }
              ],
              "internalType": "struct UTokenV1.Vouch[]",
              "name": "vouches",
              "type": "tuple[]"
            }
          ],
          "internalType": "struct UTokenV1.Staker",
          "name": "borrower",
          "type": "tuple"
        },
        {
          "internalType": "uint256",
          "name": "amount",
          "type": "uint256"
        }
      ],
      "name": "updateTrust",
      "outputs": [],
      "stateMutability": "nonpayable",
      "type": "function"
    }
  ],
  "bytecode": {
    "object": "0x60806040523480156200001157600080fd5b5060405162001a9f38038062001a9f833981016040819052620000349162000159565b6040805180820182526004808252637544414960e01b6020808401828152855180870190965292855284015281519192916200007391600391620000b3565b50805162000089906004906020840190620000b3565b5050600580546001600160a01b0319166001600160a01b03939093169290921790915550620001c8565b828054620000c1906200018b565b90600052602060002090601f016020900481019282620000e5576000855562000130565b82601f106200010057805160ff191683800117855562000130565b8280016001018555821562000130579182015b828111156200013057825182559160200191906001019062000113565b506200013e92915062000142565b5090565b5b808211156200013e576000815560010162000143565b6000602082840312156200016c57600080fd5b81516001600160a01b03811681146200018457600080fd5b9392505050565b600181811c90821680620001a057607f821691505b60208210811415620001c257634e487b7160e01b600052602260045260246000fd5b50919050565b6118c780620001d86000396000f3fe608060405234801561001057600080fd5b50600436106101215760003560e01c8063879fb33b116100ad578063a6acfe3611610071578063a6acfe361461025e578063a9059cbb14610271578063c7d43da514610284578063dd62ed3e14610297578063fc0c546a146102d057600080fd5b8063879fb33b146101ff57806395d89b4114610212578063a13f5e2e1461021a578063a45468761461022b578063a457c2d71461024b57600080fd5b8063313ce567116100f4578063313ce5671461018c57806336a7aaec1461019b57806339509351146101ae5780635bde7e7c146101c157806370a08231146101d657600080fd5b806306fdde0314610126578063095ea7b31461014457806318160ddd1461016757806323b872dd14610179575b600080fd5b61012e6102fb565b60405161013b919061129e565b60405180910390f35b6101576101523660046112d4565b61038d565b604051901515815260200161013b565b6002545b60405190815260200161013b565b6101576101873660046112fe565b6103a7565b6040516012815260200161013b565b61016b6101a93660046114e1565b6103cb565b6101576101bc3660046112d4565b6103fb565b6101d46101cf366004611516565b61043a565b005b61016b6101e436600461155b565b6001600160a01b031660009081526020819052604090205490565b6101d461020d366004611576565b610612565b61012e610834565b6101d4610228366004611653565b50565b61016b61023936600461155b565b60066020526000908152604090205481565b6101576102593660046112d4565b610843565b6101d461026c366004611516565b6108d5565b61015761027f3660046112d4565b610907565b6101d4610292366004611576565b610915565b61016b6102a53660046116e8565b6001600160a01b03918216600090815260016020908152604080832093909416825291909152205490565b6005546102e3906001600160a01b031681565b6040516001600160a01b03909116815260200161013b565b60606003805461030a9061171b565b80601f01602080910402602001604051908101604052809291908181526020018280546103369061171b565b80156103835780601f1061035857610100808354040283529160200191610383565b820191906000526020600020905b81548152906001019060200180831161036657829003601f168201915b5050505050905090565b60003361039b818585610b22565b60019150505b92915050565b6000336103b5858285610c46565b6103c0858585610cd8565b506001949350505050565b6000816040516020016103de9190611750565b604051602081830303815290604052805190602001209050919050565b3360008181526001602090815260408083206001600160a01b038716845290915281205490919061039b90829086906104359087906117f0565b610b22565b610443826103cb565b82516001600160a01b0316600090815260066020526040902054146104835760405162461bcd60e51b815260040161047a90611808565b60405180910390fd5b6000610493836060015133610ea6565b9050600083606001515160016104a991906117f0565b67ffffffffffffffff8111156104c1576104c161133a565b60405190808252806020026020018201604052801561050657816020015b60408051808201909152600080825260208201528152602001906001900390816104df5790505b50905060005b846060015151811015610567578460600151818151811061052f5761052f611827565b602002602001015182828151811061054957610549611827565b6020026020010181905250808061055f9061183d565b91505061050c565b506000198214156105b157604080518082019091523381526020810184905260608501515182518291849181106105a0576105a0611827565b6020026020010181905250506105e0565b828183815181106105c4576105c4611827565b60200260200101516020018181516105dc91906117f0565b9052505b606084018190526105f0846103cb565b93516001600160a01b0316600090815260066020526040902093909355505050565b61061b836103cb565b83516001600160a01b0316600090815260066020526040902054146106525760405162461bcd60e51b815260040161047a90611808565b8151836060015151146106915760405162461bcd60e51b81526020600482015260076024820152662170617269747960c81b604482015260640161047a565b8151819060005b82156107f1578181106106dd5760405162461bcd60e51b815260206004820152600d60248201526c042cadcdeeaced040ecdeeac6d609b1b604482015260640161047a565b60008582815181106106f1576106f1611827565b602002602001015190508660600151828151811061071157610711611827565b6020026020010151600001516001600160a01b031681600001516001600160a01b03161461076b5760405162461bcd60e51b815260206004820152600760248201526610b9ba30b5b2b960c91b604482015260640161047a565b600061078a85836040015184602001516107859190611858565b610f13565b9050808260400181815161079e91906117f0565b9052506107aa826103cb565b82516001600160a01b03166000908152600660205260409020556107ce8186611858565b9450600085116107df5750506107f1565b6107e88361183d565b92505050610698565b821561082c5760405162461bcd60e51b815260206004820152600a6024820152692172656d61696e696e6760b01b604482015260640161047a565b505050505050565b60606004805461030a9061171b565b3360008181526001602090815260408083206001600160a01b0387168452909152812054909190838110156108c85760405162461bcd60e51b815260206004820152602560248201527f45524332303a2064656372656173656420616c6c6f77616e63652062656c6f77604482015264207a65726f60d81b606482015260840161047a565b6103c08286868403610b22565b80826020018181516108e791906117f0565b9052506108f3826103cb565b336000908152600660205260409020555050565b60003361039b818585610cd8565b61091e836103cb565b83516001600160a01b0316600090815260066020526040902054146109555760405162461bcd60e51b815260040161047a90611808565b8151836060015151146109945760405162461bcd60e51b81526020600482015260076024820152662170617269747960c81b604482015260640161047a565b60006109a08484610f2a565b8051909150829060005b8215610ade578181106109ef5760405162461bcd60e51b815260206004820152600d60248201526c042cadcdeeaced040ecdeeac6d609b1b604482015260640161047a565b600086858381518110610a0457610a04611827565b60200260200101516000015181518110610a2057610a20611827565b602002602001015190506000610a5385878581518110610a4257610a42611827565b602002602001015160200151610f13565b9050610a7960405180604001604052806002815260200161257360f01b815250826110db565b8082604001818151610a8b91906117f0565b905250610a97826103cb565b82516001600160a01b0316600090815260066020526040902055610abb8186611858565b945060008511610acc575050610ade565b610ad58361183d565b925050506109aa565b8215610b195760405162461bcd60e51b815260206004820152600a6024820152692172656d61696e696e6760b01b604482015260640161047a565b50505050505050565b6001600160a01b038316610b845760405162461bcd60e51b8152602060048201526024808201527f45524332303a20617070726f76652066726f6d20746865207a65726f206164646044820152637265737360e01b606482015260840161047a565b6001600160a01b038216610be55760405162461bcd60e51b815260206004820152602260248201527f45524332303a20617070726f766520746f20746865207a65726f206164647265604482015261737360f01b606482015260840161047a565b6001600160a01b0383811660008181526001602090815260408083209487168084529482529182902085905590518481527f8c5be1e5ebec7d5bd14f71427d1e84f3dd0314c0f7b2291e5b200ac8c7c3b925910160405180910390a3505050565b6001600160a01b038381166000908152600160209081526040808320938616835292905220546000198114610cd25781811015610cc55760405162461bcd60e51b815260206004820152601d60248201527f45524332303a20696e73756666696369656e7420616c6c6f77616e6365000000604482015260640161047a565b610cd28484848403610b22565b50505050565b6001600160a01b038316610d3c5760405162461bcd60e51b815260206004820152602560248201527f45524332303a207472616e736665722066726f6d20746865207a65726f206164604482015264647265737360d81b606482015260840161047a565b6001600160a01b038216610d9e5760405162461bcd60e51b815260206004820152602360248201527f45524332303a207472616e7366657220746f20746865207a65726f206164647260448201526265737360e81b606482015260840161047a565b6001600160a01b03831660009081526020819052604090205481811015610e165760405162461bcd60e51b815260206004820152602660248201527f45524332303a207472616e7366657220616d6f756e7420657863656564732062604482015265616c616e636560d01b606482015260840161047a565b6001600160a01b03808516600090815260208190526040808220858503905591851681529081208054849290610e4d9084906117f0565b92505081905550826001600160a01b0316846001600160a01b03167fddf252ad1be2c89b69c2b068fc378daa952ba7f163c4a11628f55a4df523b3ef84604051610e9991815260200190565b60405180910390a3610cd2565b8151600090815b81811015610f0757836001600160a01b0316858281518110610ed157610ed1611827565b6020026020010151600001516001600160a01b03161415610ef55791506103a19050565b80610eff8161183d565b915050610ead565b50600019949350505050565b600081831015610f245750816103a1565b50919050565b60606000825167ffffffffffffffff811115610f4857610f4861133a565b604051908082528060200260200182016040528015610f8d57816020015b6040805180820190915260008082526020820152815260200190600190039081610f665790505b50905060005b8460600151518110156110c9576000848281518110610fb457610fb4611827565b6020026020010151905085606001518281518110610fd457610fd4611827565b6020026020010151600001516001600160a01b031681600001516001600160a01b03161461102e5760405162461bcd60e51b815260206004820152600760248201526610b9ba30b5b2b960c91b604482015260640161047a565b80516001600160a01b03166000908152600660205260409020546110645760405162461bcd60e51b815260040161047a90611808565b60008160400151826020015161107a9190611858565b905060006040518060400160405280858152602001838152509050808585815181106110a8576110a8611827565b602002602001018190525050505080806110c19061183d565b915050610f93565b506110d381611124565b949350505050565b61112082826040516024016110f192919061186f565b60408051601f198184030181529190526020810180516001600160e01b03166309710a9d60e41b179052611230565b5050565b805160609060005b818110156112285760006111418260016117f0565b90505b828110156112155784818151811061115e5761115e611827565b60200260200101516020015185838151811061117c5761117c611827565b60200260200101516020015110156112035760008582815181106111a2576111a2611827565b602002602001015190508583815181106111be576111be611827565b60200260200101518683815181106111d8576111d8611827565b6020026020010181905250808684815181106111f6576111f6611827565b6020026020010181905250505b8061120d8161183d565b915050611144565b50806112208161183d565b91505061112c565b509192915050565b80516a636f6e736f6c652e6c6f67602083016000808483855afa5050505050565b6000815180845260005b818110156112775760208185018101518683018201520161125b565b81811115611289576000602083870101525b50601f01601f19169290920160200192915050565b6020815260006112b16020830184611251565b9392505050565b80356001600160a01b03811681146112cf57600080fd5b919050565b600080604083850312156112e757600080fd5b6112f0836112b8565b946020939093013593505050565b60008060006060848603121561131357600080fd5b61131c846112b8565b925061132a602085016112b8565b9150604084013590509250925092565b634e487b7160e01b600052604160045260246000fd5b6040516080810167ffffffffffffffff811182821017156113735761137361133a565b60405290565b6040805190810167ffffffffffffffff811182821017156113735761137361133a565b604051601f8201601f1916810167ffffffffffffffff811182821017156113c5576113c561133a565b604052919050565b600067ffffffffffffffff8211156113e7576113e761133a565b5060051b60200190565b60006080828403121561140357600080fd5b61140b611350565b9050611416826112b8565b81526020808301358183015260408084013581840152606084013567ffffffffffffffff81111561144657600080fd5b8401601f8101861361145757600080fd5b803561146a611465826113cd565b61139c565b81815260069190911b8201840190848101908883111561148957600080fd5b928501925b828410156114d05784848a0312156114a65760008081fd5b6114ae611379565b6114b7856112b8565b815284870135878201528252928401929085019061148e565b606087015250939695505050505050565b6000602082840312156114f357600080fd5b813567ffffffffffffffff81111561150a57600080fd5b6110d3848285016113f1565b6000806040838503121561152957600080fd5b823567ffffffffffffffff81111561154057600080fd5b61154c858286016113f1565b95602094909401359450505050565b60006020828403121561156d57600080fd5b6112b1826112b8565b60008060006060848603121561158b57600080fd5b833567ffffffffffffffff808211156115a357600080fd5b6115af878388016113f1565b94506020915081860135818111156115c657600080fd5b8601601f810188136115d757600080fd5b80356115e5611465826113cd565b81815260059190911b8201840190848101908a83111561160457600080fd5b8584015b8381101561163c578035868111156116205760008081fd5b61162e8d89838901016113f1565b845250918601918601611608565b50979a979950505050604095909501359450505050565b6000602080838503121561166657600080fd5b823567ffffffffffffffff8082111561167e57600080fd5b818501915085601f83011261169257600080fd5b8135818111156116a4576116a461133a565b6116b6601f8201601f1916850161139c565b915080825286848285010111156116cc57600080fd5b8084840185840137600090820190930192909252509392505050565b600080604083850312156116fb57600080fd5b611704836112b8565b9150611712602084016112b8565b90509250929050565b600181811c9082168061172f57607f821691505b60208210811415610f2457634e487b7160e01b600052602260045260246000fd5b602080825282516001600160a01b03908116838301528382015160408085019190915280850151606080860191909152850151608080860152805160a086018190526000949391840192859160c08801905b808410156117cd578551805186168352870151878301529486019460019390930192908201906117a2565b5098975050505050505050565b634e487b7160e01b600052601160045260246000fd5b60008219821115611803576118036117da565b500190565b602080825260059082015264085c9bdbdd60da1b604082015260600190565b634e487b7160e01b600052603260045260246000fd5b6000600019821415611851576118516117da565b5060010190565b60008282101561186a5761186a6117da565b500390565b6040815260006118826040830185611251565b9050826020830152939250505056fea2646970667358221220d92e592160365a1362203b159f71b0cab36cbd119e9ae02a987cd1190f81522e64736f6c634300080b0033",
    "linkReferences": {}
  }
}