{
  "abi": [
    {
      "inputs": [
        {
          "internalType": "bytes",
          "name": "",
          "type": "bytes"
        }
      ],
      "name": "b",
      "outputs": [],
      "stateMutability": "nonpayable",
      "type": "function"
    }
  ],
  "bytecode": {
    "object": "0x608060405234801561001057600080fd5b50610130806100206000396000f3fe6080604052348015600f57600080fd5b506004361060285760003560e01c80637549ad5514602d575b600080fd5b603b60383660046053565b50565b005b634e487b7160e01b600052604160045260246000fd5b600060208284031215606457600080fd5b813567ffffffffffffffff80821115607b57600080fd5b818401915084601f830112608e57600080fd5b813581811115609d57609d603d565b604051601f8201601f19908116603f0116810190838211818310171560c25760c2603d565b8160405282815287602084870101111560da57600080fd5b82602086016020830137600092810160200192909252509594505050505056fea2646970667358221220e52fbf851938a99d8a02a88de791983072cddf4cd9fc1677096b24fe4ace768b64736f6c634300080b0033",
    "linkReferences": {}
  }
}